{
  "contractName": "PawnFactory",
  "abi": [
    {
      "inputs": [
        {
          "internalType": "address",
          "name": "_feeToSetter",
          "type": "address"
        }
      ],
      "stateMutability": "nonpayable",
      "type": "constructor"
    },
    {
      "anonymous": false,
      "inputs": [
        {
          "indexed": true,
          "internalType": "address",
          "name": "token",
          "type": "address"
        },
        {
          "indexed": false,
          "internalType": "address",
          "name": "space",
          "type": "address"
        },
        {
          "indexed": false,
          "internalType": "uint256",
          "name": "",
          "type": "uint256"
        }
      ],
      "name": "PairCreated",
      "type": "event"
    },
    {
      "anonymous": false,
      "inputs": [
        {
          "indexed": true,
          "internalType": "address",
          "name": "token",
          "type": "address"
        },
        {
          "indexed": false,
          "internalType": "address",
          "name": "space",
          "type": "address"
        },
        {
          "indexed": false,
          "internalType": "uint256",
          "name": "length",
          "type": "uint256"
        }
      ],
      "name": "SpaceCreated",
      "type": "event"
    },
    {
      "inputs": [
        {
          "internalType": "uint256",
          "name": "",
          "type": "uint256"
        }
      ],
      "name": "allSpaces",
      "outputs": [
        {
          "internalType": "address",
          "name": "",
          "type": "address"
        }
      ],
      "stateMutability": "view",
      "type": "function"
    },
    {
      "inputs": [],
      "name": "feeTo",
      "outputs": [
        {
          "internalType": "address",
          "name": "",
          "type": "address"
        }
      ],
      "stateMutability": "view",
      "type": "function"
    },
    {
      "inputs": [],
      "name": "feeToSetter",
      "outputs": [
        {
          "internalType": "address",
          "name": "",
          "type": "address"
        }
      ],
      "stateMutability": "view",
      "type": "function"
    },
    {
      "inputs": [
        {
          "internalType": "address",
          "name": "",
          "type": "address"
        }
      ],
      "name": "getSpace",
      "outputs": [
        {
          "internalType": "address",
          "name": "",
          "type": "address"
        }
      ],
      "stateMutability": "view",
      "type": "function"
    },
    {
      "inputs": [],
      "name": "allSpacesLength",
      "outputs": [
        {
          "internalType": "uint256",
          "name": "",
          "type": "uint256"
        }
      ],
      "stateMutability": "view",
      "type": "function"
    },
    {
      "inputs": [
        {
          "internalType": "address",
          "name": "token",
          "type": "address"
        }
      ],
      "name": "createSpace",
      "outputs": [
        {
          "internalType": "address",
          "name": "space",
          "type": "address"
        }
      ],
      "stateMutability": "nonpayable",
      "type": "function"
    },
    {
      "inputs": [
        {
          "internalType": "address",
          "name": "_feeTo",
          "type": "address"
        }
      ],
      "name": "setFeeTo",
      "outputs": [],
      "stateMutability": "nonpayable",
      "type": "function"
    },
    {
      "inputs": [
        {
          "internalType": "address",
          "name": "_feeToSetter",
          "type": "address"
        }
      ],
      "name": "setFeeToSetter",
      "outputs": [],
      "stateMutability": "nonpayable",
      "type": "function"
    }
  ],
  "bytecode": "0x608060405234801561001057600080fd5b506040516138c03803806138c08339818101604052602081101561003357600080fd5b5051600180546001600160a01b0319166001600160a01b0390921691909117905561385d806100636000396000f3fe608060405234801561001057600080fd5b50600436106100885760003560e01c806389cecd311161005b57806389cecd31146100f0578063a2e74af614610116578063a8cb47131461013e578063f46901ed1461016457610088565b8063017e7e581461008d578063094b7415146100b157806349c97251146100b9578063872b8580146100d3575b600080fd5b61009561018a565b604080516001600160a01b039092168252519081900360200190f35b610095610199565b6100c16101a8565b60408051918252519081900360200190f35b610095600480360360208110156100e957600080fd5b50356101ae565b6100956004803603602081101561010657600080fd5b50356001600160a01b03166101d8565b61013c6004803603602081101561012c57600080fd5b50356001600160a01b0316610420565b005b6100956004803603602081101561015457600080fd5b50356001600160a01b031661049a565b61013c6004803603602081101561017a57600080fd5b50356001600160a01b03166104b5565b6000546001600160a01b031681565b6001546001600160a01b031681565b60035490565b600381815481106101be57600080fd5b6000918252602090912001546001600160a01b0316905081565b60006001600160a01b038216610235576040805162461bcd60e51b815260206004820152601960248201527f5061776e466163746f72793a205a45524f5f4144445245535300000000000000604482015290519081900360640190fd5b6001600160a01b0382811660009081526002602052604090205416156102a2576040805162461bcd60e51b815260206004820152601960248201527f5061776e466163746f72793a2053504143455f45584953545300000000000000604482015290519081900360640190fd5b6060604051806020016102b49061052f565b6020820181038252601f19601f82011660405250905060008360405160200180826001600160a01b031660601b8152601401915050604051602081830303815290604052805190602001209050808251602084016000f59250826001600160a01b031663c4d66de8856040518263ffffffff1660e01b815260040180826001600160a01b03168152602001915050600060405180830381600087803b15801561035c57600080fd5b505af1158015610370573d6000803e3d6000fd5b5050506001600160a01b0380861660008181526002602090815260408083208054958a166001600160a01b0319968716811790915560038054600181018255948190527fc2575a0e9e593c00f959f8c92f12db2869c3395a3b0502d05e2516446f71f85b90940180549096168117909555915482519485529084015280519193507f9d92b1372c0fff8e3ee90bd3de318492ab9f2fa5925f75cfa292e7a2b55515e1928290030190a25050919050565b6001546001600160a01b03163314610478576040805162461bcd60e51b81526020600482015260166024820152752830bbb72330b1ba37b93c9d102327a92124a22222a760511b604482015290519081900360640190fd5b600180546001600160a01b0319166001600160a01b0392909216919091179055565b6002602052600090815260409020546001600160a01b031681565b6001546001600160a01b0316331461050d576040805162461bcd60e51b81526020600482015260166024820152752830bbb72330b1ba37b93c9d102327a92124a22222a760511b604482015290519081900360640190fd5b600080546001600160a01b0319166001600160a01b0392909216919091179055565b6132eb8061053d8339019056fe608060405260016011553480156200001657600080fd5b5060408051808201825260098152685061776e537061636560b81b60208083019190915282518084019093526003835262282ba760e91b9083015290620000646301ffc9a760e01b620000e0565b81516200007990600690602085019062000165565b5080516200008f90600790602084019062000165565b50620000a26380ac58cd60e01b620000e0565b620000b4635b5e139f60e01b620000e0565b620000c663780e9d6360e01b620000e0565b5050600a80546001600160a01b0319163317905562000211565b6001600160e01b0319808216141562000140576040805162461bcd60e51b815260206004820152601c60248201527f4552433136353a20696e76616c696420696e7465726661636520696400000000604482015290519081900360640190fd5b6001600160e01b0319166000908152602081905260409020805460ff19166001179055565b828054600181600116156101000203166002900490600052602060002090601f0160209004810192826200019d5760008555620001e8565b82601f10620001b857805160ff1916838001178555620001e8565b82800160010185558215620001e8579182015b82811115620001e8578251825591602001919060010190620001cb565b50620001f6929150620001fa565b5090565b5b80821115620001f65760008155600101620001fb565b6130ca80620002216000396000f3fe608060405234801561001057600080fd5b50600436106101f05760003560e01c80636c0360eb1161010f578063b88d4fde116100a2578063c87b56dd11610071578063c87b56dd14610795578063d06fcba8146107b2578063d09ef241146107ba578063e985e9c51461085e576101f0565b8063b88d4fde14610699578063ba9a7a561461075f578063c45a015514610767578063c4d66de81461076f576101f0565b806395d89b41116100de57806395d89b41146105fe578063a22cb46514610606578063a846c2fd14610634578063a85c38ef14610651576101f0565b80636c0360eb1461055b57806370a0823114610563578063761610fc146105895780638a72ea6a146105a6576101f0565b80632e1a7d4d1161018757806342842e0e1161015657806342842e0e146104a05780634579268a146104d65780634f6ccce7146105215780636352211e1461053e576101f0565b80632e1a7d4d146103f75780632e2dc43e146104145780632f745c591461046c578063407384e914610498576101f0565b806313789680116101c3578063137896801461031457806318160ddd1461039c57806322f37ae0146103a457806323b872dd146103c1576101f0565b806301ffc9a7146101f557806306fdde0314610230578063081812fc146102ad578063095ea7b3146102e6575b600080fd5b61021c6004803603602081101561020b57600080fd5b50356001600160e01b03191661088c565b604080519115158252519081900360200190f35b6102386108af565b6040805160208082528351818301528351919283929083019185019080838360005b8381101561027257818101518382015260200161025a565b50505050905090810190601f16801561029f5780820380516001836020036101000a031916815260200191505b509250505060405180910390f35b6102ca600480360360208110156102c357600080fd5b5035610945565b604080516001600160a01b039092168252519081900360200190f35b610312600480360360408110156102fc57600080fd5b506001600160a01b0381351690602001356109a7565b005b61038a6004803603606081101561032a57600080fd5b81019060208101813564010000000081111561034557600080fd5b82018360208201111561035757600080fd5b8035906020019184602083028401116401000000008311171561037957600080fd5b919350915080359060200135610a82565b60408051918252519081900360200190f35b61038a610ce3565b610312600480360360208110156103ba57600080fd5b5035610cf4565b610312600480360360608110156103d757600080fd5b506001600160a01b03813581169160208101359091169060400135610f1f565b6103126004803603602081101561040d57600080fd5b5035610f76565b61041c61121e565b60408051602080825283518183015283519192839290830191858101910280838360005b83811015610458578181015183820152602001610440565b505050509050019250505060405180910390f35b61038a6004803603604081101561048257600080fd5b506001600160a01b0381351690602001356112ff565b61041c61132a565b610312600480360360608110156104b657600080fd5b506001600160a01b038135811691602081013590911690604001356114c8565b6104f3600480360360208110156104ec57600080fd5b50356114e3565b604080519485526001600160a01b039093166020850152838301919091526060830152519081900360800190f35b61038a6004803603602081101561053757600080fd5b5035611582565b6102ca6004803603602081101561055457600080fd5b5035611598565b6102386115c0565b61038a6004803603602081101561057957600080fd5b50356001600160a01b0316611621565b61038a6004803603602081101561059f57600080fd5b5035611689565b6105c3600480360360208110156105bc57600080fd5b503561168f565b604080519687526001600160a01b039095166020870152858501939093526060850191909152608084015260a0830152519081900360c00190f35b6102386116ce565b6103126004803603604081101561061c57600080fd5b506001600160a01b038135169060200135151561172f565b6103126004803603602081101561064a57600080fd5b5035611834565b61066e6004803603602081101561066757600080fd5b5035611ad2565b6040805195865260208601949094528484019290925260608401526080830152519081900360a00190f35b610312600480360360808110156106af57600080fd5b6001600160a01b038235811692602081013590911691604082013591908101906080810160608201356401000000008111156106ea57600080fd5b8201836020820111156106fc57600080fd5b8035906020019184600183028401116401000000008311171561071e57600080fd5b91908080601f016020809104026020016040519081016040528093929190818152602001838380828437600092019190915250929550611b04945050505050565b61038a611b62565b6102ca611b68565b6103126004803603602081101561078557600080fd5b50356001600160a01b0316611b77565b610238600480360360208110156107ab57600080fd5b5035611bef565b6102ca611e96565b6107d7600480360360208110156107d057600080fd5b5035611ea5565b6040518080602001886001600160a01b03168152602001878152602001868152602001858152602001848152602001838152602001828103825289818151815260200191508051906020019060200280838360005b8381101561084457818101518382015260200161082c565b505050509050019850505050505050505060405180910390f35b61021c6004803603604081101561087457600080fd5b506001600160a01b0381358116916020013516611fab565b6001600160e01b0319811660009081526020819052604090205460ff165b919050565b60068054604080516020601f600260001961010060018816150201909516949094049384018190048102820181019092528281526060939092909183018282801561093b5780601f106109105761010080835404028352916020019161093b565b820191906000526020600020905b81548152906001019060200180831161091e57829003601f168201915b5050505050905090565b600061095082611fd9565b61098b5760405162461bcd60e51b815260040180806020018281038252602c815260200180612fbf602c913960400191505060405180910390fd5b506000908152600460205260409020546001600160a01b031690565b60006109b282611598565b9050806001600160a01b0316836001600160a01b03161415610a055760405162461bcd60e51b81526004018080602001828103825260218152602001806130436021913960400191505060405180910390fd5b806001600160a01b0316610a17611fe6565b6001600160a01b03161480610a385750610a3881610a33611fe6565b611fab565b610a735760405162461bcd60e51b8152600401808060200182810382526038815260200180612f126038913960400191505060405180910390fd5b610a7d8383611fea565b505050565b600083610aca576040805162461bcd60e51b815260206004820152601160248201527014185ddb94dc1858d94e881393d7d39195607a1b604482015290519081900360640190fd5b60005b84811015610b7557600b546001600160a01b03166323b872dd3330898986818110610af457fe5b905060200201356040518463ffffffff1660e01b815260040180846001600160a01b03168152602001836001600160a01b031681526020018281526020019350505050600060405180830381600087803b158015610b5157600080fd5b505af1158015610b65573d6000803e3d6000fd5b505060019092019150610acd9050565b506040518060c001604052808686808060200260200160405190810160405280939291908181526020018383602002808284376000920182905250938552505050602080830186905260408084018890524260608501526080840183905260a0909301829052600c548252600e8152919020825180519192610bfc92849290910190612d94565b506020820151816001015560408201518160020155606082015181600301556080820151816004015560a08201518160050155905050610c3e33600c54612058565b600c549050336001600160a01b03167f07aa6d5d81a739a9fd89bd7a2ca70ba72fc8b94acff7cf84aafcc799cb8e7596600c548787878760405180868152602001806020018481526020018381526020018281038252868682818152602001925060200280828437600083820152604051601f909101601f19169092018290039850909650505050505050a2600c54610cd8906001612186565b600c55949350505050565b6000610cef60026121e0565b905090565b610cfd81611fd9565b610d4a576040805162461bcd60e51b81526020600482015260196024820152782830bbb729b830b1b29d102727a722ac24a9aa2fa7a92222a960391b604482015290519081900360640190fd5b33610d5482611598565b6001600160a01b031614610da6576040805162461bcd60e51b81526020600482015260146024820152732830bbb729b830b1b29d102727aa2fa7aba722a960611b604482015290519081900360640190fd5b6000818152600e602052604090206004015415610e0a576040805162461bcd60e51b815260206004820152601b60248201527f5061776e53706163653a20414c52454144595f41434345505445440000000000604482015290519081900360640190fd5b60005b6000828152600e6020526040902054811015610edc57600b546000838152600e6020526040902080546001600160a01b03909216916323b872dd91309133919086908110610e5757fe5b90600052602060002001546040518463ffffffff1660e01b815260040180846001600160a01b03168152602001836001600160a01b031681526020018281526020019350505050600060405180830381600087803b158015610eb857600080fd5b505af1158015610ecc573d6000803e3d6000fd5b505060019092019150610e0d9050565b50610ee6816121eb565b60408051828152905133917f9b09baf720c60ad3e68b28ec995e1a86b0dcd3ab5fcd9a2613e0e3d4f6d67d69919081900360200190a250565b610f30610f2a611fe6565b826122b8565b610f6b5760405162461bcd60e51b81526004018080602001828103825260318152602001806130646031913960400191505060405180910390fd5b610a7d83838361235c565b610f7f81611fd9565b610fcc576040805162461bcd60e51b81526020600482015260196024820152782830bbb729b830b1b29d102727a722ac24a9aa2fa7a92222a960391b604482015290519081900360640190fd5b6000818152600e6020526040902060040154611029576040805162461bcd60e51b815260206004820152601760248201527614185ddb94dc1858d94e881393d517d050d0d154151151604a1b604482015290519081900360640190fd5b6000818152600e602052604090206001810154600490910154429161104e9190612186565b10611099576040805162461bcd60e51b815260206004820152601660248201527514185ddb94dc1858d94e881393d517d156141254915160521b604482015290519081900360640190fd5b6000818152600e6020908152604080832060050154808452600f909252909120600101546001600160a01b03163314611111576040805162461bcd60e51b81526020600482015260156024820152742830bbb729b830b1b29d102727aa2fa622a72222a960591b604482015290519081900360640190fd5b60005b6000838152600e60205260409020548110156111e357600b546000848152600e6020526040902080546001600160a01b03909216916323b872dd9130913391908690811061115e57fe5b90600052602060002001546040518463ffffffff1660e01b815260040180846001600160a01b03168152602001836001600160a01b031681526020018281526020019350505050600060405180830381600087803b1580156111bf57600080fd5b505af11580156111d3573d6000803e3d6000fd5b5050600190920191506111149050565b5060408051838152905133917f884edad9ce6fa2440d8a54cc123490eb96d2768479d49ff9c7366125a9424364919081900360200190a25050565b6060600061122a610ce3565b1161127c576040805162461bcd60e51b815260206004820152601a60248201527f5061776e53706163653a204e4f4e45584953545f4f5244455253000000000000604482015290519081900360640190fd5b611284610ce3565b67ffffffffffffffff8111801561129a57600080fd5b506040519080825280602002602001820160405280156112c4578160200160208202803683370190505b50905060005b81518110156112fb576112dc81611582565b8282815181106112e857fe5b60209081029190910101526001016112ca565b5090565b6001600160a01b038216600090815260016020526040812061132190836124a8565b90505b92915050565b60606000611336610ce3565b11611388576040805162461bcd60e51b815260206004820152601a60248201527f5061776e53706163653a204e4f4e45584953545f4f5244455253000000000000604482015290519081900360640190fd5b611390610ce3565b67ffffffffffffffff811180156113a657600080fd5b506040519080825280602002602001820160405280156113d0578160200160208202803683370190505b50905060005b6113de610ce3565b8110156112fb5760006113f082611582565b90506113fa612ddb565b6000828152600e60209081526040918290208251815460e09381028201840190945260c08101848152909391928492849184018282801561145a57602002820191906000526020600020905b815481526020019060010190808311611446575b505050505081526020016001820154815260200160028201548152602001600382015481526020016004820154815260200160058201548152505090508060800151600014156114be57818484815181106114b157fe5b6020026020010181815250505b50506001016113d6565b610a7d83838360405180602001604052806000815250611b04565b6000818152600f602052604081206004015481908190819061154c576040805162461bcd60e51b815260206004820152601960248201527f5061776e53706163653a204e4f4e45584953545f4f4646455200000000000000604482015290519081900360640190fd5b505050600091825250600f6020526040902080546001820154600383015460049093015491936001600160a01b03909116929190565b6000806115906002846124b4565b509392505050565b600061132482604051806060016040528060298152602001612f7460299139600291906124d0565b60098054604080516020601f600260001961010060018816150201909516949094049384018190048102820181019092528281526060939092909183018282801561093b5780601f106109105761010080835404028352916020019161093b565b60006001600160a01b0382166116685760405162461bcd60e51b815260040180806020018281038252602a815260200180612f4a602a913960400191505060405180910390fd5b6001600160a01b0382166000908152600160205260409020611324906121e0565b50600090565b600f6020526000908152604090208054600182015460028301546003840154600485015460059095015493946001600160a01b03909316939192909186565b60078054604080516020601f600260001961010060018816150201909516949094049384018190048102820181019092528281526060939092909183018282801561093b5780601f106109105761010080835404028352916020019161093b565b611737611fe6565b6001600160a01b0316826001600160a01b0316141561179d576040805162461bcd60e51b815260206004820152601960248201527f4552433732313a20617070726f766520746f2063616c6c657200000000000000604482015290519081900360640190fd5b80600560006117aa611fe6565b6001600160a01b03908116825260208083019390935260409182016000908120918716808252919093529120805460ff1916921515929092179091556117ee611fe6565b6001600160a01b03167f17307eab39ab6107e8899845ad3d59bd9653f200f220920489ca2b5937696c318360405180821515815260200191505060405180910390a35050565b61183d81611fd9565b61188a576040805162461bcd60e51b81526020600482015260196024820152782830bbb729b830b1b29d102727a722ac24a9aa2fa7a92222a960391b604482015290519081900360640190fd5b3361189482611598565b6001600160a01b0316146118e6576040805162461bcd60e51b81526020600482015260146024820152732830bbb729b830b1b29d102727aa2fa7aba722a960611b604482015290519081900360640190fd5b6000818152600e6020526040902060040154611943576040805162461bcd60e51b815260206004820152601760248201527614185ddb94dc1858d94e881393d517d050d0d154151151604a1b604482015290519081900360640190fd5b6000818152600e60205260409020600181015460049091015442916119689190612186565b10156119b0576040805162461bcd60e51b815260206004820152601260248201527114185ddb94dc1858d94e881156141254915160721b604482015290519081900360640190fd5b6000818152600e6020526040812060050154905b6000838152600e6020526040902054811015611a9357600b546000848152600e6020526040902080546001600160a01b03909216916323b872dd91309133919086908110611a0e57fe5b90600052602060002001546040518463ffffffff1660e01b815260040180846001600160a01b03168152602001836001600160a01b031681526020018281526020019350505050600060405180830381600087803b158015611a6f57600080fd5b505af1158015611a83573d6000803e3d6000fd5b5050600190920191506119c49050565b506040805183815260208101839052815133927fad7daa402ba35c049966c9827828cb62d41be7729ab0b5c816ef79e08c2418c9928290030190a25050565b600e60205260009081526040902060018101546002820154600383015460048401546005909401549293919290919085565b611b15611b0f611fe6565b836122b8565b611b505760405162461bcd60e51b81526004018080602001828103825260318152602001806130646031913960400191505060405180910390fd5b611b5c848484846124e7565b50505050565b6103e881565b600a546001600160a01b031681565b600a546001600160a01b03163314611bcd576040805162461bcd60e51b81526020600482015260146024820152732830bbb729b830b1b29d102327a92124a22222a760611b604482015290519081900360640190fd5b600b80546001600160a01b0319166001600160a01b0392909216919091179055565b6060611bfa82611fd9565b611c355760405162461bcd60e51b815260040180806020018281038252602f815260200180613014602f913960400191505060405180910390fd5b60008281526008602090815260409182902080548351601f6002600019610100600186161502019093169290920491820184900484028101840190945280845260609392830182828015611cca5780601f10611c9f57610100808354040283529160200191611cca565b820191906000526020600020905b815481529060010190602001808311611cad57829003601f168201915b505060095493945050505060026000196101006001841615020190911604611cf35790506108aa565b805115611dc4576009816040516020018083805460018160011615610100020316600290048015611d5b5780601f10611d39576101008083540402835291820191611d5b565b820191906000526020600020905b815481529060010190602001808311611d47575b5050825160208401908083835b60208310611d875780518252601f199092019160209182019101611d68565b6001836020036101000a038019825116818451168082178552505050505050905001925050506040516020818303038152906040529150506108aa565b6009611dcf84612539565b6040516020018083805460018160011615610100020316600290048015611e2d5780601f10611e0b576101008083540402835291820191611e2d565b820191906000526020600020905b815481529060010190602001808311611e19575b5050825160208401908083835b60208310611e595780518252601f199092019160209182019101611e3a565b6001836020036101000a03801982511681845116808217855250505050505090500192505050604051602081830303815290604052915050919050565b600b546001600160a01b031681565b6060600080600080600080611eb988611fd9565b611f06576040805162461bcd60e51b81526020600482015260196024820152782830bbb729b830b1b29d102727a722ac24a9aa2fa7a92222a960391b604482015290519081900360640190fd5b611f0f88611598565b6000898152600e60209081526040918290208054835181840281018401909452808452939950919290830182828015611f6757602002820191906000526020600020905b815481526020019060010190808311611f53575b50505060009a8b525050600e602052604090982060028101546001820154600383015460048401546005909401549b9c999b929a5090989097509195509350915050565b6001600160a01b03918216600090815260056020908152604080832093909416825291909152205460ff1690565b6000611324600283612614565b3390565b600081815260046020526040902080546001600160a01b0319166001600160a01b038416908117909155819061201f82611598565b6001600160a01b03167f8c5be1e5ebec7d5bd14f71427d1e84f3dd0314c0f7b2291e5b200ac8c7c3b92560405160405180910390a45050565b6001600160a01b0382166120b3576040805162461bcd60e51b815260206004820181905260248201527f4552433732313a206d696e7420746f20746865207a65726f2061646472657373604482015290519081900360640190fd5b6120bc81611fd9565b1561210e576040805162461bcd60e51b815260206004820152601c60248201527f4552433732313a20746f6b656e20616c7265616479206d696e74656400000000604482015290519081900360640190fd5b61211a60008383610a7d565b6001600160a01b038216600090815260016020526040902061213c9082612620565b506121496002828461262c565b5060405181906001600160a01b038416906000907fddf252ad1be2c89b69c2b068fc378daa952ba7f163c4a11628f55a4df523b3ef908290a45050565b600082820183811015611321576040805162461bcd60e51b815260206004820152601b60248201527f536166654d6174683a206164646974696f6e206f766572666c6f770000000000604482015290519081900360640190fd5b600061132482612642565b60006121f682611598565b905061220481600084610a7d565b61220f600083611fea565b600082815260086020526040902054600260001961010060018416150201909116041561224d57600082815260086020526040812061224d91612e11565b6001600160a01b038116600090815260016020526040902061226f9083612646565b5061227b600283612652565b5060405182906000906001600160a01b038416907fddf252ad1be2c89b69c2b068fc378daa952ba7f163c4a11628f55a4df523b3ef908390a45050565b60006122c382611fd9565b6122fe5760405162461bcd60e51b815260040180806020018281038252602c815260200180612ee6602c913960400191505060405180910390fd5b600061230983611598565b9050806001600160a01b0316846001600160a01b031614806123445750836001600160a01b031661233984610945565b6001600160a01b0316145b8061235457506123548185611fab565b949350505050565b826001600160a01b031661236f82611598565b6001600160a01b0316146123b45760405162461bcd60e51b8152600401808060200182810382526029815260200180612feb6029913960400191505060405180910390fd5b6001600160a01b0382166123f95760405162461bcd60e51b8152600401808060200182810382526024815260200180612ec26024913960400191505060405180910390fd5b612404838383610a7d565b61240f600082611fea565b6001600160a01b03831660009081526001602052604090206124319082612646565b506001600160a01b03821660009081526001602052604090206124549082612620565b506124616002828461262c565b5080826001600160a01b0316846001600160a01b03167fddf252ad1be2c89b69c2b068fc378daa952ba7f163c4a11628f55a4df523b3ef60405160405180910390a4505050565b6000611321838361265e565b60008080806124c386866126c2565b9097909650945050505050565b60006124dd84848461273d565b90505b9392505050565b6124f284848461235c565b6124fe84848484612807565b611b5c5760405162461bcd60e51b8152600401808060200182810382526032815260200180612e906032913960400191505060405180910390fd5b60608161255e57506040805180820190915260018152600360fc1b60208201526108aa565b8160005b811561257657600101600a82049150612562565b60608167ffffffffffffffff8111801561258f57600080fd5b506040519080825280601f01601f1916602001820160405280156125ba576020820181803683370190505b50859350905060001982015b831561260b57600a840660300160f81b828280600190039350815181106125e957fe5b60200101906001600160f81b031916908160001a905350600a840493506125c6565b50949350505050565b6000611321838361296f565b60006113218383612987565b60006124dd84846001600160a01b0385166129d1565b5490565b60006113218383612a68565b60006113218383612b2e565b815460009082106126a05760405162461bcd60e51b8152600401808060200182810382526022815260200180612e6e6022913960400191505060405180910390fd5b8260000182815481106126af57fe5b9060005260206000200154905092915050565b8154600090819083106127065760405162461bcd60e51b8152600401808060200182810382526022815260200180612f9d6022913960400191505060405180910390fd5b600084600001848154811061271757fe5b906000526020600020906002020190508060000154816001015492509250509250929050565b600082815260018401602052604081205482816127d85760405162461bcd60e51b81526004018080602001828103825283818151815260200191508051906020019080838360005b8381101561279d578181015183820152602001612785565b50505050905090810190601f1680156127ca5780820380516001836020036101000a031916815260200191505b509250505060405180910390fd5b508460000160018203815481106127eb57fe5b9060005260206000209060020201600101549150509392505050565b600061281b846001600160a01b0316612c02565b61282757506001612354565b6060612935630a85bd0160e11b61283c611fe6565b88878760405160240180856001600160a01b03168152602001846001600160a01b0316815260200183815260200180602001828103825283818151815260200191508051906020019080838360005b838110156128a357818101518382015260200161288b565b50505050905090810190601f1680156128d05780820380516001836020036101000a031916815260200191505b5095505050505050604051602081830303815290604052906001600160e01b0319166020820180516001600160e01b038381831617835250505050604051806060016040528060328152602001612e90603291396001600160a01b0388169190612c08565b9050600081806020019051602081101561294e57600080fd5b50516001600160e01b031916630a85bd0160e11b1492505050949350505050565b60009081526001919091016020526040902054151590565b6000612993838361296f565b6129c957508154600181810184556000848152602080822090930184905584548482528286019093526040902091909155611324565b506000611324565b600082815260018401602052604081205480612a365750506040805180820182528381526020808201848152865460018181018955600089815284812095516002909302909501918255915190820155865486845281880190925292909120556124e0565b82856000016001830381548110612a4957fe5b90600052602060002090600202016001018190555060009150506124e0565b60008181526001830160205260408120548015612b245783546000198083019190810190600090879083908110612a9b57fe5b9060005260206000200154905080876000018481548110612ab857fe5b600091825260208083209091019290925582815260018981019092526040902090840190558654879080612ae857fe5b60019003818190600052602060002001600090559055866001016000878152602001908152602001600020600090556001945050505050611324565b6000915050611324565b60008181526001830160205260408120548015612b245783546000198083019190810190600090879083908110612b6157fe5b9060005260206000209060020201905080876000018481548110612b8157fe5b600091825260208083208454600290930201918255600193840154918401919091558354825289830190526040902090840190558654879080612bc057fe5b60008281526020808220600260001990940193840201828155600190810183905592909355888152898201909252604082209190915594506113249350505050565b3b151590565b60606124dd848460008585612c1c85612c02565b612c6d576040805162461bcd60e51b815260206004820152601d60248201527f416464726573733a2063616c6c20746f206e6f6e2d636f6e7472616374000000604482015290519081900360640190fd5b60006060866001600160a01b031685876040518082805190602001908083835b60208310612cac5780518252601f199092019160209182019101612c8d565b6001836020036101000a03801982511681845116808217855250505050505090500191505060006040518083038185875af1925050503d8060008114612d0e576040519150601f19603f3d011682016040523d82523d6000602084013e612d13565b606091505b5091509150612d23828286612d2e565b979650505050505050565b60608315612d3d5750816124e0565b825115612d4d5782518084602001fd5b60405162461bcd60e51b815260206004820181815284516024840152845185939192839260440191908501908083836000831561279d578181015183820152602001612785565b828054828255906000526020600020908101928215612dcf579160200282015b82811115612dcf578251825591602001919060010190612db4565b506112fb929150612e58565b6040518060c001604052806060815260200160008152602001600081526020016000815260200160008152602001600081525090565b50805460018160011615610100020316600290046000825580601f10612e375750612e55565b601f016020900490600052602060002090810190612e559190612e58565b50565b5b808211156112fb5760008155600101612e5956fe456e756d657261626c655365743a20696e646578206f7574206f6620626f756e64734552433732313a207472616e7366657220746f206e6f6e20455243373231526563656976657220696d706c656d656e7465724552433732313a207472616e7366657220746f20746865207a65726f20616464726573734552433732313a206f70657261746f7220717565727920666f72206e6f6e6578697374656e7420746f6b656e4552433732313a20617070726f76652063616c6c6572206973206e6f74206f776e6572206e6f7220617070726f76656420666f7220616c6c4552433732313a2062616c616e636520717565727920666f7220746865207a65726f20616464726573734552433732313a206f776e657220717565727920666f72206e6f6e6578697374656e7420746f6b656e456e756d657261626c654d61703a20696e646578206f7574206f6620626f756e64734552433732313a20617070726f76656420717565727920666f72206e6f6e6578697374656e7420746f6b656e4552433732313a207472616e73666572206f6620746f6b656e2074686174206973206e6f74206f776e4552433732314d657461646174613a2055524920717565727920666f72206e6f6e6578697374656e7420746f6b656e4552433732313a20617070726f76616c20746f2063757272656e74206f776e65724552433732313a207472616e736665722063616c6c6572206973206e6f74206f776e6572206e6f7220617070726f766564a26469706673582212207061eb5fe0aeb2b1eed4d4895e72617fea6a7af2d6d0579b00f9a50e3c2466ef64736f6c63430007050033a26469706673582212200d765551e4388dadd0d0f5b1bb932f766ef7e474ae13c59f221383d8e06ae27364736f6c63430007050033",
  "immutableReferences": {},
  "source": "// SPDX-License-Identifier: UNLICENSED\r\npragma solidity >=0.6.0 <0.8.0;\r\n\r\nimport './interfaces/IPawnFactory.sol';\r\nimport './PawnSpace.sol';\r\n\r\ncontract PawnFactory is IPawnFactory {\r\n    address public override feeTo;\r\n    address public override feeToSetter;\r\n\r\n    mapping(address => address) public override getSpace;\r\n    address[] public override allSpaces;\r\n\r\n    event SpaceCreated(address indexed token, address space, uint256 length);\r\n\r\n    constructor(address _feeToSetter) {\r\n        feeToSetter = _feeToSetter;\r\n    }\r\n\r\n    function allSpacesLength() external view override returns (uint256) {\r\n        return allSpaces.length;\r\n    }\r\n\r\n    function createSpace(address token) external override returns (address space) {\r\n        require(token != address(0), 'PawnFactory: ZERO_ADDRESS');\r\n        require(getSpace[token] == address(0), 'PawnFactory: SPACE_EXISTS');\r\n        bytes memory bytecode = type(PawnSpace).creationCode;\r\n        bytes32 salt = keccak256(abi.encodePacked(token));\r\n        assembly {\r\n            space := create2(0, add(bytecode, 32), mload(bytecode), salt)\r\n        }\r\n        IPawnSpace(space).initialize(token);\r\n        getSpace[token] = space;\r\n        allSpaces.push(space);\r\n        emit SpaceCreated(token, space, allSpaces.length);\r\n    }\r\n\r\n    function setFeeTo(address _feeTo) external override {\r\n        require(msg.sender == feeToSetter, 'PawnFactory: FORBIDDEN');\r\n        feeTo = _feeTo;\r\n    }\r\n\r\n    function setFeeToSetter(address _feeToSetter) external override {\r\n        require(msg.sender == feeToSetter, 'PawnFactory: FORBIDDEN');\r\n        feeToSetter = _feeToSetter;\r\n    }\r\n}\r\n",
  "sourcePath": "C:/Users/sonic/Desktop/Projects/pawnspace-contracts/contracts/PawnFactory.sol",
  "compiler": {
    "name": "solc",
    "version": "0.7.5+commit.eb77ed08.Emscripten.clang"
  },
  "schemaVersion": "3.3.2",
  "updatedAt": "2021-01-19T23:26:38.445Z",
  "devdoc": {
    "kind": "dev",
    "methods": {},
    "version": 1
  },
  "userdoc": {
    "kind": "user",
    "methods": {},
    "version": 1
  }
}